{
  "contractName": "Cortex",
  "abi": [
    {
      "anonymous": false,
      "inputs": [
        {
          "indexed": false,
          "internalType": "uint256",
          "name": "_svcId",
          "type": "uint256"
        },
        {
          "indexed": false,
          "internalType": "address",
          "name": "_creator",
          "type": "address"
        },
        {
          "indexed": false,
          "internalType": "string",
          "name": "_identifier",
          "type": "string"
        },
        {
          "indexed": false,
          "internalType": "bytes",
          "name": "_meta",
          "type": "bytes"
        }
      ],
      "name": "ProofCreation",
      "type": "event"
    },
    {
      "constant": false,
      "inputs": [
        {
          "internalType": "uint256",
          "name": "_svcId",
          "type": "uint256"
        },
        {
          "internalType": "string",
          "name": "_identifier",
          "type": "string"
        },
        {
          "internalType": "bytes",
          "name": "_meta",
          "type": "bytes"
        }
      ],
      "name": "setProof",
      "outputs": [],
      "payable": false,
      "stateMutability": "nonpayable",
      "type": "function"
    },
    {
      "constant": true,
      "inputs": [
        {
          "internalType": "uint256",
          "name": "_svcId",
          "type": "uint256"
        },
        {
          "internalType": "string",
          "name": "_identifier",
          "type": "string"
        }
      ],
      "name": "getProofFromSvc",
      "outputs": [
        {
          "internalType": "address[]",
          "name": "potentialUsers",
          "type": "address[]"
        }
      ],
      "payable": false,
      "stateMutability": "view",
      "type": "function"
    },
    {
      "constant": true,
      "inputs": [
        {
          "internalType": "address",
          "name": "_user",
          "type": "address"
        },
        {
          "internalType": "uint256",
          "name": "_svcId",
          "type": "uint256"
        }
      ],
      "name": "getProofFromUser",
      "outputs": [
        {
          "internalType": "string",
          "name": "identifier",
          "type": "string"
        },
        {
          "internalType": "bytes",
          "name": "meta",
          "type": "bytes"
        }
      ],
      "payable": false,
      "stateMutability": "view",
      "type": "function"
    }
  ],
  "bytecode": "0x608060405234801561001057600080fd5b5061095f806100206000396000f3fe608060405234801561001057600080fd5b50600436106100415760003560e01c806352bfbf4414610046578063d3ad2d0c14610179578063e900f3a514610251575b600080fd5b6100926004803603604081101561005c57600080fd5b81019080803573ffffffffffffffffffffffffffffffffffffffff16906020019092919080359060200190929190505050610329565b604051808060200180602001838103835285818151815260200191508051906020019080838360005b838110156100d65780820151818401526020810190506100bb565b50505050905090810190601f1680156101035780820380516001836020036101000a031916815260200191505b50838103825284818151815260200191508051906020019080838360005b8381101561013c578082015181840152602081019050610121565b50505050905090810190601f1680156101695780820380516001836020036101000a031916815260200191505b5094505050505060405180910390f35b61024f6004803603606081101561018f57600080fd5b8101908080359060200190929190803590602001906401000000008111156101b657600080fd5b8201836020820111156101c857600080fd5b803590602001918460018302840111640100000000831117156101ea57600080fd5b90919293919293908035906020019064010000000081111561020b57600080fd5b82018360208201111561021d57600080fd5b8035906020019184600183028401116401000000008311171561023f57600080fd5b9091929391929390505050610508565b005b6102d26004803603604081101561026757600080fd5b81019080803590602001909291908035906020019064010000000081111561028e57600080fd5b8201836020820111156102a057600080fd5b803590602001918460018302840111640100000000831117156102c257600080fd5b909192939192939050505061073d565b6040518080602001828103825283818151815260200191508051906020019060200280838360005b838110156103155780820151818401526020810190506102fa565b505050509050019250505060405180910390f35b6060806000808573ffffffffffffffffffffffffffffffffffffffff1673ffffffffffffffffffffffffffffffffffffffff16815260200190815260200160002060008481526020019081526020016000208054600181600116156101000203166002900480601f01602080910402602001604051908101604052809291908181526020018280546001816001161561010002031660029004801561040f5780601f106103e45761010080835404028352916020019161040f565b820191906000526020600020905b8154815290600101906020018083116103f257829003601f168201915b50505050509150600160008573ffffffffffffffffffffffffffffffffffffffff1673ffffffffffffffffffffffffffffffffffffffff16815260200190815260200160002060008481526020019081526020016000208054600181600116156101000203166002900480601f0160208091040260200160405190810160405280929190818152602001828054600181600116156101000203166002900480156104fa5780601f106104cf576101008083540402835291602001916104fa565b820191906000526020600020905b8154815290600101906020018083116104dd57829003601f168201915b505050505090509250929050565b83836000803373ffffffffffffffffffffffffffffffffffffffff1673ffffffffffffffffffffffffffffffffffffffff16815260200190815260200160002060008881526020019081526020016000209190610566929190610805565b5060026000868152602001908152602001600020848460405180838380828437808301925050509250505090815260200160405180910390203390806001815401808255809150509060018203906000526020600020016000909192909190916101000a81548173ffffffffffffffffffffffffffffffffffffffff021916908373ffffffffffffffffffffffffffffffffffffffff160217905550508181600160003373ffffffffffffffffffffffffffffffffffffffff1673ffffffffffffffffffffffffffffffffffffffff16815260200190815260200160002060008881526020019081526020016000209190610662929190610885565b507f7bd1e1b7ca5fef66cba7403bc8037a67ec5e13f2dd549c7586033634b672156a853386868686604051808781526020018673ffffffffffffffffffffffffffffffffffffffff1673ffffffffffffffffffffffffffffffffffffffff16815260200180602001806020018381038352878782818152602001925080828437600081840152601f19601f8201169050808301925050508381038252858582818152602001925080828437600081840152601f19601f8201169050808301925050509850505050505050505060405180910390a15050505050565b606060026000858152602001908152602001600020838360405180838380828437808301925050509250505090815260200160405180910390208054806020026020016040519081016040528092919081815260200182805480156107f757602002820191906000526020600020905b8160009054906101000a900473ffffffffffffffffffffffffffffffffffffffff1673ffffffffffffffffffffffffffffffffffffffff16815260200190600101908083116107ad575b505050505090509392505050565b828054600181600116156101000203166002900490600052602060002090601f016020900481019282601f1061084657803560ff1916838001178555610874565b82800160010185558215610874579182015b82811115610873578235825591602001919060010190610858565b5b5090506108819190610905565b5090565b828054600181600116156101000203166002900490600052602060002090601f016020900481019282601f106108c657803560ff19168380011785556108f4565b828001600101855582156108f4579182015b828111156108f35782358255916020019190600101906108d8565b5b5090506109019190610905565b5090565b61092791905b8082111561092357600081600090555060010161090b565b5090565b9056fea265627a7a723158200f3cb7ee6b231d8b02db5ff01a5a57b8c1e5c6b0b5c9eb4703b74aa06f301d3364736f6c634300050c0032",
  "source": "pragma solidity ^0.5.0;\n\ncontract Cortex {\n  mapping (address => mapping (uint => string)) private proofs;\n  // IPFS hash\n  mapping (address => mapping (uint => bytes)) private proofMeta;\n  // *Potential* reverse proofs - require manual validation\n  mapping (uint => mapping (string => address[])) private proofsReverseIndex;\n\n  event ProofCreation(uint _svcId, address _creator, string _identifier, bytes _meta);\n\n  function setProof(uint _svcId, string calldata _identifier, bytes calldata _meta) external {\n    proofs[msg.sender][_svcId] = _identifier;\n    proofsReverseIndex[_svcId][_identifier].push(msg.sender);\n    proofMeta[msg.sender][_svcId] = _meta;\n    emit ProofCreation(_svcId, msg.sender, _identifier, _meta);\n  }\n\n  function getProofFromSvc(uint _svcId, string calldata _identifier) external view\n    returns (address[] memory potentialUsers)\n  {\n    return proofsReverseIndex[_svcId][_identifier];\n  }\n\n  function getProofFromUser(address _user, uint _svcId) external view\n    returns (string memory identifier, bytes memory meta)\n  {\n    identifier = proofs[_user][_svcId];\n    meta = proofMeta[_user][_svcId];\n  }\n}",
  "sourcePath": "/home/kevin/Projects/cortex/contracts/Cortex.sol",
  "compiler": {
    "name": "solc",
    "version": "0.5.12+commit.7709ece9.Emscripten.clang"
  },
  "schemaVersion": "3.0.18",
  "updatedAt": "2019-11-10T09:35:17.152Z",
  "networkType": "ethereum",
  "devdoc": {
    "methods": {}
  },
  "userdoc": {
    "methods": {}
  }
}